:020000001D28B9
:100008007E14803120007F08F2002100921E112802
:100018002000921E1128642018282100111C18287D
:100028002000111C1828212072082000FF007E10D3
:1000380009001E287E1020006F28740820009700F1
:100048007308960022008C127320A330F1005530FB
:10005800F000F00B2D28F10B2D28200011100800BE
:100068002000980199019E30970058309600170893
:10007800F4001608F30011102100111408002200E2
:100088008C011B3021008C00133023008C002400CD
:100098008C012100951722009D0108002100921271
:1000A800A2302200910041309200200092122100DB
:1000B800921608005230210099009A019801080010
:1000C80022008C1676202000921208005E20432021
:1000D8005220342008006A208B170B177228200042
:0A00E800181008002000181408008A
:020000040001F9
:04000E00A4FFFFDF6D
:00000001FF
